S0150000506C616E566C696567747569672E73726563D4
S11300000C9440000C945D000C945D000C945D0015
S11300100C945D000C945D000C945D000C945D00E8
S11300200C945D000C94A9000C945D000C945D008C
S11300300C945D000C945D000C945D000C945D00C8
S11300400C94B3000C945D000C9471000C945D004E
S11300500C945D000C945D000C945D000C945D00A8
S11300600C945D000C945D003B01400145014A0184
S11300704F01540158015D01640170017B0180014D
S113008011241FBECFEFD8E0DEBFCDBF11E0A0E04A
S1130090B1E0EEECF7E002C005900D92A830B10794
S11300A0D9F721E0A8E0B1E001C01D92A334B20762
S11300B0E1F70E9485010C94E5030C9400009093F1
S11300C0C5008093C40080E98093C10086E08093DA
S11300D0C20010920E0110920D0181E080930C0178
S11300E008951F920F920FB60F9211242F938F939E
S11300F09F93AF93BF93EF93FF932091C6009FB755
S1130100F89480913F019FBF8032B9F0EBE1F1E0B8
S1130110A0A1B1A12C9380A191A1019691A380A348
S11301208B53914011F4F1A3E0A39FB7F894EBE152
S1130130F1E084A18F5F84A39FBFFF91EF91BF91F2
S1130140AF919F918F912F910F900FBE0F901F90A1
S113015018951F920F920FB60F9211240F900FBE95
S11301600F901F9018951F920F920FB60F921124A3
S11301708F939F9380910901813021F4809105012F
S113018081113DC080910901833009F42898809140
S113019009018D3221F480910601811132C08091D0
S11301A009018F3209F42998809142018823A9F02A
S11301B08091400190914101019690934101809377
S11301C040018A35910529F41092410110924001B1
S11301D00CC0019711F42B9A2C9A809140019091B4
S11301E04101029711F42B982C98809109018F5F9B
S11301F0809309018A3539F41092090104C0289AC0
S1130200C1CF299ACCCF9F918F910F900FBE0F90A1
S11302101F90189580E090E00E9451036F3F2FEFEC
S113022072078207910521F46FEE7EEB8DEA9EED55
S1130230CB010E943E030E943903AC01990F660B67
S1130240770B80E090E00E9457038EE180930401D5
S113025008950E94390367E676E00E94BF02862F64
S113026090E0FC013197EC30F10508F04DC0EC5CF6
S1130270FF4F0C94D3029BB184E089278BB9089576
S11302809BB188E089278BB908959BB180E18927C8
S11302908BB908959BB180E289278BB908959BB1EE
S11302A080E489278BB908958BB180588BB9089560
S11302B095B184E0892785B908959091420181E040
S11302C089278093420108959091060181E089274E
S11302D0809306018823C1F081E08093050108958D
S11302E09091050181E089278093050181110CC05B
S11302F010920601089598B181E0892788B908957C
S113030098B182E0892788B9089584B18F6184B94E
S113031087B1836087B98AB18C6F8AB985B1807ED1
S113032085B988B18C7F88B98BB183708BB984E02F
S113033090E00E944903809308010E940A018FB74C
S1130340F894EBE1F1E0F1A3E0A3F3A3E2A314A298
S11303508FBF14BC85E085BD16BCEEE6F0E080815D
S1130360816080831092B00082E08093B10010928B
S1130370B200E0E7F0E080818160808387E690E06E
S11303800E945F00789420E030E0A12CCBE1D1E022
S11303900F2EF2E8EF2EF12CF02D0F2EFBEDCF2EC9
S11303A0D12CF02D0F2EF4E69F2EF02D0FE011E04E
S11303B0BB24B394412C6894552455F89FB7F89402
S11303C08CA19FBF882309F4D4C040910D0144231C
S11303D009F4C5C0CEC0DBA3CAA39FB7F8948CA10F
S11303E081508CA39FBFE0910E01EC3028F0B092B5
S11303F00C01E42FA12C02C0E11106C08091080178
S1130400851302C010920C0181E08E0F80930E01BF
S1130410F0E0E15FFE4F50835D3091F4AA2071F269
S113042080910C01811103C0B0920D0104C010929F
S11304300E01B0920C0150920B0140920A01BECF02
S1130440AB2C5A3009F4BACFA12CB8CFF801908163
S113045080910801981341C080910E018330E8F126
S11304608181928180FF02C05F9A01C05F9881FF01
S113047002C05E9A01C05E9882FF02C05D9A01C00C
S11304805D9883FF02C05A9A01C05A9884FF02C043
S11304905B9A01C05B9885FF02C05C9A01C05C98BE
S11304A086FF05C0B0920601B092050104C0109207
S11304B0060110920501882314F42A9A01C02A988F
S11304C090FF03C0B092420108C010924201109202
S11304D04101109240012B982C9810920E01109219
S11304E00D01B0920C012115310519F0215031098B
S11304F065CF809104018E31E1F40E943903992380
S113050014F48150904E792E759475947594759465
S1130510759431F0812C0E94290183948710FBCFBC
S11305200E943903B6010E94BF026C59969E900145
S1130530112480910A0190910B01009731F00197E9
S113054090930B0180930A0139CF0E943903B701BC
S11305500E94BF026093040120E137E22FCFEAA199
S1130560FBA15191FBA3EAA3EB53F14009F035CF72
S113057032CF80910D01813009F0B5CF67CF97FB61
S1130580072E16F4009407D077FD09D00E94D902F3
S113059007FC05D03EF4909581959F4F0895709582
S11305A061957F4F0895EE0FFF1F0590F491E02DA4
S11305B00994AA1BBB1B51E107C0AA1FBB1FA617A6
S11305C0B70710F0A61BB70B881F991F5A95A9F7F8
S11305D080959095BC01CD0108958F929F92AF9222
S11305E0BF92CF92DF92EF92FF92CF93DF93EC0111
S11305F0688179818A819B816115710581059105E5
S113060021F464E279ED8BE597E02DE133EF41E0ED
S113061050E00E94820349015A019B01AC01A7EA00
S1130620B1E40E94A1036B017C01ACEEB4EFA5011F
S113063094010E94AF03DC01CB018C0D9D1DAE1D06
S1130640BF1DB7FF03C00197A109B04888839983F0
S1130650AA83BB839F77DF91CF91FF90EF90DF90C8
S1130660CF90BF90AF909F908F9008950E94ED021D
S1130670089580E091E00E94ED020895A0E0B0E0CA
S11306808093000190930101A0930201B0930301B0
S11306900895F999FECF92BD81BDF89A992780B546
S11306A00895A6E1B0E044E050E00C946603242FE2
S11306B00E947503252F0E9475030C945F030E940A
S11306C07403272F0C947503DC01CB01FC01F99909
S11306D0FECF06C0F2BDE1BDF89A319600B40D928A
S11306E041505040B8F70895262FF999FECF1FBA0C
S11306F092BD81BD20BD0FB6F894FA9AF99A0FBE47
S113070001960895052E97FB1EF400940E94990308
S113071057FD07D00E94B40307FC03D04EF40C9499
S1130720990350954095309521953F4F4F4F5F4F1A
S1130730089590958095709561957F4F8F4F9F4F49
S113074008950E94D603A59F900DB49F900DA49F79
S1130750800D911D11240895B7FF0C94A1030E94EC
S1130760A103821B930B0895A1E21A2EAA1BBB1BA3
S1130770FD010DC0AA1FBB1FEE1FFF1FA217B30769
S1130780E407F50720F0A21BB30BE40BF50B661F7F
S1130790771F881F991F1A9469F760957095809543
S11307A090959B01AC01BD01CF010895A29FB001BA
S11307B0B39FC001A39F700D811D1124911DB29F91
S11107C0700D811D1124911D0895F894FFCF32
S10B07CE010000001E010100FE
S9030000FC
